:1000000009C02EC02DC014C013C012C040C03FC0D4
:100010000FC00EC011241FBECFE9CDBF10E0A0E677
:10002000B0E001C01D92A236B107E1F702D04CC08A
:10003000E7CFCF93DF9380E886BD81E086BD41D0D6
:10004000EC0134D088E087BB9881992311F01882A5
:1000500086BBEFEDFEE23197F1F700C00000F4CF70
:100060001F920F920FB60F9211248F939F9381E0EE
:10007000809360008FED9EE20197F1F700C00000D1
:100080009F918F910F900FBE0F901F9018951F9208
:100090000F920FB60F9211248F9381E0809361002D
:1000A0008F910F900FBE0F901F90189510926000C7
:1000B00010926100C49A80E185BB80E28BBF789486
:0C00C000089580E690E00895F894FFCFCA
:00000001FF
