:100000000EC01EC01DC01BC01AC029C018C017C01A
:1000100016C015C024C023C012C011C010C01124C6
:100020001FBECFE5D2E0DEBFCDBF20E0A0E6B0E04E
:1000300001C01D92A236B207E1F75DD099C0E0CFB2
:100040001F920F920FB60F9211248F9381E080932D
:1000500060008F910F900FBE0F901F9018951F9208
:100060000F920FB60F9211248F9381E0809361005D
:100070008F910F900FBE0F901F901895E0E6F0E063
:1000800010821182089580E690E00895FC011082AC
:1000900028E532E0328321830895FC018181928139
:1000A000883522E0920710F083E003C0059720F026
:1000B00081E08083128211820895FC01908199234E
:1000C00021F091509083C49A0895C4980895CF93D5
:1000D000DF93EC01F2DF89819A8101969A8389830B
:1000E000DF91CF910895FC01218132812F5F3F4F35
:1000F000328321830895CF93DF9300D01F92CDB731
:10010000DEB780E886BD88E086BDBC9ABB98C39AFE
:10011000C498AB9A8BB780628BBF80E389BD82E0C5
:100120008ABD89B7806189BF85E083BFCE01019612
:10013000ADDFA9DF8C01A2DF789485B7877E85BF0C
:1001400085B7806285BF889585B78F7D85BFF801AB
:100150008081882321F01082CE0101969EDFF80174
:100160008181882369F31182CE010196B0DFE8CF47
:04017000F894FFCF31
:00000001FF
