:1000000009C064C063C071C013C012C06EC06DC0AF
:100010000FC00EC011241FBECFE9CDBF10E0A0E677
:10002000B0E001C01D92A236B107E1F71BD074C049
:10003000E7CF27B3982F9095922397BB98B3982B2F
:1000400098BB089597B3982B97BB08959BB7982BAF
:100050009BBF089595B3982B95BB089599B7982B9E
:1000600099BF0895CF93DF9380E886BD16BC82E0E8
:100070008FBD8FEF86BF84E090E0F0DF85E083BF27
:1000800088E090E0DFDF80E190E0D3DF80E190E086
:10009000E1DF80E290E0DADF3CD0EC0135D078940B
:1000A00085B7877E85BF98E085B7806285BF8895D4
:1000B00085B78F7D85BF8881882311F0188296BB14
:1000C0008981882389F3198296BBEECF1F920F9204
:1000D0000FB60F9211248F9381E0809360008F916F
:1000E0000F900FBE0F901F9018951F920F920FB692
:1000F0000F9211248F9381E0809361008F910F9074
:100100000FBE0F901F901895109260001092610022
:0C011000089580E690E00895F894FFCF79
:00000001FF
