:1000000009C07AC079C087C013C012C084C083C041
:100010000FC00EC011241FBECFE9CDBF10E0A0E677
:10002000B0E001C01D92A236B107E1F71BD0A3C01A
:10003000E7CF27B3982F9095922397BB98B3982B2F
:1000400098BB089597B3982B97BB08959BB7982BAF
:100050009BBF089595B3982B95BB089599B7982B9E
:1000600099BF0895DF92EF92FF920F931F93DF9352
:10007000CF930F92CDB7DEB780E886BD86E086BD10
:1000800088E090E0DFDF80E190E0D3DF80E190E086
:10009000E1DF80E290E0DADF8DE586BF82E08FBDB0
:1000A00084E090E0DBDF85E083BF7E010894E11C03
:1000B000F11CC7014CD043D08C013CD0789485B75B
:1000C000877E85BFDE2CEF2C85B7806285BF889543
:1000D00085B78F7D85BFF8018081882321F010824C
:1000E0008D2D9E2D37D0F8018181882369F31182EF
:1000F0008D2D9E2D33D0E8CF1F920F920FB60F9209
:1001000011248F9381E0809360008F910F900FBE38
:100110000F901F9018951F920F920FB60F921124F7
:100120008F9381E0809361008F910F900FBE0F90AD
:100130001F9018951092600010926100089580E65B
:1001400090E0089598B38095892388BB0895FC01B9
:10015000108208952AE0FC0120830895FC0180812B
:10016000882329F08150808388E086BB089588E049
:0A01700090E0E8DF0895F894FFCF57
:00000001FF
