:1000000009C041C040C04EC013C012C04BC04AC05E
:100010000FC00EC011241FBECFE9CDBF10E0A0E677
:10002000B0E001C01D92A236B107E1F706D056C07C
:10003000E7CF99B7982B99BF0895CF93DF9380E8C6
:1000400086BD81E086BD8FEF86BF84E090E0F1DF62
:1000500082E08FBD85E083BF3ED0EC0132D088E0E6
:1000600087BB85B7877E85BF98E085B7806285BFEF
:100070007894889585B78F7D85BF88818823A9F37B
:10008000188296BBF2CF1F920F920FB60F921124D7
:100090008F9381E0809360008F910F900FBE0F903F
:1000A0001F9018951F920F920FB60F9211248F93E5
:1000B00081E0809361008F910F900FBE0F901F9091
:1000C00018951092600010926100C49A80E185BB7F
:1000D00080E28BBF089580E690E00895F894FFCF0A
:00000001FF
